:100000000C942C020C9454020C9454020C94540240
:100010000C9454020C9454020C9454020C94540208
:100020000C9454020C9454020C949D190C943118A5
:100030000C9454020C9454020C9454020C945402E8
:100040000C9454020C9454020C9454020C945402D8
:100050000C9454020C9454020C9454020C946A02B2
:100060000C9454020C9454020C9454020C945402B8
:100070000C9454020C9454020C9454020C945402A8
:100080000C9454020C9454020C9454020C94540298
:100090000C94830B0C9454020C9454020C94540250
:1000A0000C9454020C9454020C945402017B0100F1
:1000B00000FFFF1E001F002000210022000043E07F
:1000C00000E400FFFF23002400250026002700FF96
:1000D000FF350014001A000800150017002B002A35
:1000E000002C0028001C0018000C00120013002E29
:1000F000004B0004001600070009000A002900E375
:1001000000E200E6000B000D000E000F003300348B
:10011000004E001D001B000600190005002B44E1E5
:1001200000E5002B44110010003600370038002D88
:1001300000FFFF3A003B003C003D003E003900FF5D
:10014000FFFFFFB6583F004000410042004300441B
:10015000002B00FFFF0150FFFF4250605029504C20
:10016000002800CD58B5582F0830082F0030004522
:10017000004A00045002500850415025502A50FFB8
:10018000FFFFFF65005000510052004F00FFFFFFCE
:10019000FF4D0046004900FFFF44502650FFFFFF7F
:1001A000FFFFFFFFFFE24CEA5CE95CFFFF3100313B
:1001B0000803040B0C13141A1B24252B2C33343B7B
:1001C0003C02050A0D1215191C23262A2D32353A38
:1001D0003D0106090E1116181D2227292E31363928
:1001E0003E0007080F10171F1E2120282F30373818
:1001F0003F000000000000000000000000000000C0
:1002000000000000000000000000000000010101EB
:1002100001010101010101010101020202020202C8
:100220000202030303030303030404040404050597
:10023000050506060606070707070808080909094D
:100240000A0A0A0B0B0B0C0C0D0D0D0E0E0F0F10E6
:10025000101111121213131414151516161718185D
:1002600019191A1B1B1C1D1D1E1F202021222323B0
:10027000242526272728292A2B2C2D2E2F303132D2
:10028000323334363738393A3B3C3D3E3F404243C7
:1002900044454648494A4B4D4E4F51525355565787
:1002A000595A5C5D5F606263656668696B6D6E700C
:1002B00072737577787A7C7E7F81838587898A8C53
:1002C0008E90929496989A9C9EA0A2A4A7A9ABAD5A
:1002D000AFB1B4B6B8BABDBFC1C4C6C8CBCDD0D219
:1002E000D5D7DADCDFE1E4E7E9ECEFF1F4F7F9FC8C
:1002F000FF05010906A101050719E029E7150025F9
:1003000001750195088102950175088101950575B2
:1003100001050819012905910295017503910195BF
:10032000067508150025FF0507190029FF8100C083
:10033000050C0901A1018504150026FF0319002AF7
:10034000FF03950475108100C005010906A1018510
:1003500008050719E029E7150025017501950881B1
:10036000020508190129089508750191020507750C
:100370000495018101190429DD15002501750195F8
:10038000D98102750395018101C005010980A10190
:100390008505150026FF00190029FF9501750881C4
:1003A00000C005010902A10105091901290815006C
:1003B00025019508750181020501093009311600F2
:1003C0000026FF7F75109502810209381581257F6F
:1003D000750895018106C0080B00020202010009A0
:1003E00004000001020200000524001001052401A0
:1003F00001010424020605240600010705810310FB
:10040000004009040100020A000000070502024042
:1004100000000705830240000012010002EF020104
:1004200040091201230001010203014B6579626F4B
:10043000617264696F004D6F64656C203031000437
:1004400003090400C503B905C6088F0D870F77108F
:10045000D61092111215C30511241FBECFEFDAE09A
:10046000DEBFCDBF11E0A0E0B1E0E0E7F8E302C0FD
:1004700005900D92A237B107D9F724E0A2E7B1E0C9
:1004800001C01D92AB39B207E1F712E0CBE2D2E036
:1004900004C02197FE010E940F1CC232D107C9F788
:1004A0000E9457020C942B1C0C94000008950E948B
:1004B00021030E94560281E994E00E94151A0E94CD
:1004C000BD03C0E0D0E00E94C1032097E1F30E9489
:1004D0000000F9CF1F920F920FB60F9211242F93A5
:1004E0003F938F939F93AF93BF93809173019091AC
:1004F0007401A0917501B09176013091720123E0F1
:10050000230F2D3720F40196A11DB11D05C026E84B
:10051000230F0296A11DB11D2093720180937301D8
:1005200090937401A0937501B09376018091770147
:1005300090917801A0917901B0917A010196A11D65
:10054000B11D8093770190937801A0937901B093C6
:100550007A01BF91AF919F918F913F912F910F9011
:100560000FBE0F901F9018952FB7F89460917301EC
:100570007091740180917501909176012FBF08955B
:100580003FB7F8948091770190917801A09179011B
:10059000B0917A0126B5A89B05C02F3F19F00196AE
:1005A000A11DB11D3FBFBA2FA92F982F8827820FF9
:1005B000911DA11DB11DBC01CD0142E0660F771F49
:1005C000881F991F4A95D1F708958F929F92AF92F5
:1005D000BF92CF92DF92EF92FF926B017C010E945B
:1005E000C0024B015C01C114D104E104F10401F12A
:1005F0000E94441A0E94C002DC01CB0188199909AB
:10060000AA09BB09883E9340A105B10560F321E02A
:10061000C21AD108E108F10888EE880E83E0981E1E
:10062000A11CB11CC114D104E104F10419F7DBCF02
:10063000FF90EF90DF90CF90BF90AF909F908F9002
:100640000895789484B5826084BD84B5816084BD4A
:1006500085B5826085BD85B5816085BDEEE6F0E03B
:10066000808181608083E1E8F0E010828081826097
:100670008083808181608083E0E8F0E08081816018
:100680008083E1E9F0E08081826080838081816005
:100690008083E0E9F0E0808181608083E1ECF0E03C
:1006A000808184608083808182608083808181609A
:1006B0008083E3ECF0E0808181608083E0ECF0E017
:1006C000808182608083E2ECF0E0808181608083C1
:1006D000EAE7F0E0808184608083808182608083AB
:1006E00080818160808380818068808308950895FF
:1006F00081E0FA01808360911B0170911C0180915F
:100700001D0108958AE393E00E94630880E090E071
:10071000089580E090E008950F93022F242F462F34
:10072000BC018AE393E00E94740821E030E0019765
:1007300011F020E030E0C9010F91089580E090E0D1
:1007400008958AE393E00E94960880E090E008957F
:1007500080E090E00895ECEAF0E0849108959B0138
:1007600044E0849FC0011124BC0163557F4F44E0E5
:1007700050E0C9010C94151C089586E891E00C9492
:10078000E10386E891E00C940804CF93DF93CBE774
:10079000D1E08EE491E0998388831A821B821C82C7
:1007A0001D821F821E8288E793E09987888788ECE4
:1007B0008A87CE010E94B11382ED8A87DF91CF91A3
:1007C0000895CF93DF9340E855E260E070E084E362
:1007D00094E00E940C150E9482038BE891E00E9435
:1007E00028040E94FB080E94080A0E94120A0E9424
:1007F000EC06C0E0D0E06D2F8C2F0E948D06DF5FED
:10080000D031C9F7CF5FC430A9F7DF91CF910895F8
:100810000E94B402609387017093880180938901DC
:1008200090938A010E9489038BE891E00E947505EC
:100830000E94A1030E94C9090E947A090C94A8038E
:100840003F9A479A08956E9A769824982C9808951E
:10085000CF93DF93EC010FB6F894A89580916000D8
:10086000886180936000109260000FBE64E670E0C3
:1008700080E090E00E94E502CE010E942004CE01BB
:100880000E942304188219821A821B821C821D82F4
:100890001E821F828CE08093B800DF91CF91089573
:1008A000613420F060E070E080E00895E62F062ECD
:1008B000000CFF0B603244F4CF01880F991FE80F42
:1008C000F91FE45FFD4F08C0B097CF01880F991F53
:1008D000E80FF91FED55FE4F608171818281089507
:1008E0000F931F93CF93DF9367FD43C0D42F8901EC
:1008F000C62F6032E4F40E945004D81307C081E090
:10090000171305C0061303C080E001C081E0909179
:100910000101892B809301016C2FCC0F770BFB0118
:10092000EE0FFF1FE60FF71FE45FFD4F1FC060349F
:1009300004F50E945004D81307C081E0171305C0C6
:10094000061303C080E001C081E090910101892B72
:10095000809301016C2FCC0F770B60527109FB0162
:10096000EE0FFF1FE60FF71FED55FE4F00831183BB
:10097000D283DF91CF911F910F9108950F931F9311
:10098000E42FF0E030E1639FE00DF11D1124EF54FE
:10099000FE4F6491422F98011F910F910C947004A7
:1009A00080910101882311F18CE092E00E94AF0A4E
:1009B00083EA91E00E94AF0A8CE092E00E94AF0AC5
:1009C00083EA91E00E94AF0A8CE092E00E94AF0AB5
:1009D00083EA91E00E94AF0A8CE092E00E94AF0AA5
:1009E00083EA91E00E94AF0A109201010895CF932B
:1009F000DF93EC0188819981AA81BB8188879987DF
:100A0000AA87BB878C819D81AE81BF818C879D87A2
:100A1000AE87BF878CE092E00E94380A882341F0BD
:100A20008CE092E00E946B0A688379838A839B83BF
:100A300083EA91E00E94380A882341F083EA91E03A
:100A40000E946B0A6C837D838E839F83DF91CF919D
:100A50000895DF92EF92FF920F931F93CF93DF934E
:100A6000082FC62FD42FD22E641303C06623C9F0DB
:100A7000D62F10E0C0FBEE24E0F8F12CC701880F60
:100A8000991F2D2F2170282B39F04D2D411B602FE0
:100A900080E090E00E94CB05C695D6951F5F183088
:100AA00049F7DF91CF911F910F91FF90EF90DF9069
:100AB00008950F931F93CF938C01C0E0F8010F5F4F
:100AC0001F4F27E0408560818C2F0E9429052FE071
:100AD000F801438563818C2F0E942905CF5FC430C4
:100AE00069F7CF911F910F910895CF93DF93EC0198
:100AF0000E94F704CE01DF91CF910C945905643028
:100B0000C0F44031B0F4E62FF0E0242F277043FF0B
:100B100003C0E556FE4F02C0E156FE4F80E890E06C
:100B200002C0959587952A95E2F780959081892353
:100B3000808308956430D8F44031C8F4842F8770DE
:100B400070E020E830E002C0359527958A95E2F7FD
:100B5000FB0143FF03C0E556FE4F02C0E156FE4FC6
:100B6000808190E02823392381E0232B09F480E061
:100B7000089560E08CE092E00E94200A63E083EA3E
:100B800091E00C94200A83EA91E00E941F0A8CE015
:100B900092E00C941F0AEF92FF920F931F93CF9352
:100BA000DF9300D0CDB7DEB79A838983062FF42E6A
:100BB000122F643008F049C02FE0241708F445C014
:100BC000812F8270E82E11FF19C010FD17C0898196
:100BD0009A81009711F016FF05C06F2D802F0E949B
:100BE0008D060CC020E1629FF0011124E40FF11D7D
:100BF000EE0FFF1FEB54FD4F918380834F2D602F2D
:100C00008BE891E00E949A05882351F010FF69C09B
:100C1000E11067C04F2D602F8BE891E00E947F05A7
:100C200029813A8180E090E02817390771F480E14A
:100C3000089FF0011124EF0DF11DEE0FFF1FEB5483
:100C4000FD4F808191819A838983212F4F2D602FC1
:100C5000CE0101960E948C03892B09F042C0212FFE
:100C60004F2D602F89819A810E94F1079A83898391
:100C700020E030E082179307A1F1F9800A8106FF96
:100C80001AC007FD2EC003FF07C011FF2AC08F2D19
:100C9000902F0E940C0A25C000FF23C011FD21C027
:100CA00010FF1FC08F2D902F0E94160A8F2D902F9E
:100CB0000E941B0A16C0812F817011FF0AC081118A
:100CC00002C061E001C060E08F2D902F0E943809C2
:100CD00008C0882331F017FF04C08F2D902F0E9489
:100CE0008A090F900F90DF91CF911F910F91FF9084
:100CF000EF90089550E090E1699F400D511D11243F
:100D0000FA0190E4899FE00DF11D1124EE0FFF1F01
:100D1000EF54FF4F859194910895CF93DF93462F21
:100D2000262F30E090E1899FF0011124EF01C20FDE
:100D3000D31FCC0FDD1FCB54DD4FEB58FD4FDF0130
:100D4000A20FB31FE0910201F0910301682F8C9173
:100D5000099599838883DF91CF9108950F931F930D
:100D6000809100018150409136035091370360918A
:100D7000380370913903882389F08A019B01082E7A
:100D800004C036952795179507950A94D2F700FF6A
:100D900003C08093350304C08150EDCF109235031A
:100DA0001F910F9108950F931F9340913603509117
:100DB000370360913803709139038A019B0104C0A5
:100DC00036952795179507958A95D2F7D901C801C9
:100DD00081701F910F910895DF92EF92FF920F9310
:100DE0001F93CF93DF9380E4E5E7F2E0DF011D92EC
:100DF0008A95E9F77F01D0E000E010E0D02EC091A5
:100E000035031C16B4F48C2F0E94D306882379F086
:100E1000E0910201F09103014D2D6D2F8C2F09956A
:100E2000019629F0F701E00FF11FC08302C0C15005
:100E3000E8CF0F5F1F4F0031110501F7DF5F20E1A1
:100E4000E20EF11CD430C1F6DF91CF911F910F91CA
:100E5000FF90EF90DF9008950F931F93009136035A
:100E6000109137032091380330913903B901A8015B
:100E7000082E04C076956795579547950A94D2F742
:100E800040FF28C041E050E060E070E0082E04C060
:100E9000440F551F661F771F0A94D2F7409550954F
:100EA000609570954023512362237323409336034A
:100EB000509337036093380370933903909135034F
:100EC000891302C00E94AE060E94EC061F910F918A
:100ED0000C949E031F910F910895CF939091000160
:100EE000891780F5C82F0E94D30681112BC081E09D
:100EF00090E0A0E0B0E00C2E04C0880F991FAA1F5C
:100F0000BB1F0A94D2F7409136035091370360918A
:100F1000380370913903842B952BA62BB72B809324
:100F2000360390933703A0933803B093390380912D
:100F300035038C1710F40E94AE060E94EC06CF9188
:100F40000C949E03CF910895809135038F5F0C948C
:100F50006D07809135030C942C07CF93C82F862FF3
:100F60008270CA3248F1CA52C13289F0C232C9F421
:100F70006170882329F0611103C0CF910C94A407FC
:100F8000662369F181112BC0CF910C94A907617080
:100F9000882311F06623C1F3662309F181111FC074
:100FA000ECCF882331F08C2F0E94D306811117C01B
:100FB00012C060FD0CC013C0882389F060FD0FC013
:100FC0008C2F0E94D306882331F0CC2321F08C2F64
:100FD000CF910C942C078C2FCF910C946D07CF914F
:100FE0000895943429F4622F0E94AD0780E090E0C8
:100FF00008959A01462F682F8BE891E00C947004B5
:10100000CF92DF92EF92CF936B01E82EC0E06E2D6E
:10101000A6018C2F0E94F907CF5FC034C1F7CF9192
:10102000EF90DF90CF900895909140038917D8F406
:10103000809305010E94CB0890933F0380933E0369
:1010400080913B0381110FC060E070E00E940008B6
:1010500080913E0390913F03DC01ED91FC91028071
:10106000F381E02D09940895809105018F5F8093AD
:10107000050190914003891708F080E00C94140852
:1010800080910501811102C08091400381508093BD
:101090000501809105010C9414080F931F93890199
:1010A000242F462F682F8BE891E00E94BE041F91E9
:1010B0000F91089580913B03811104C08BE891E06A
:1010C0000C94D004089560E070E080E00E94000875
:1010D0000E94BC03809105018F3F19F480E00E94BB
:1010E000140880E090E008950F93FB018181833420
:1010F000C9F401FF0CC000FD0AC0FB012081318151
:1011000080E093E48217930729F40E94340881E079
:1011100090E00AC081E093E428173907C1F70E94E4
:101120004008F5CF80E090E00F91089580913B0357
:10113000811129C0209187013091880180913C0361
:1011400090913D03281B390B8091040190E0821798
:101150009307C8F40E945A082091040180913C032F
:1011600090913D03820F911D90933D0380933C032A
:1011700080913E0390913F03DC01ED91FC9104804E
:10118000F581E02D099580E090E008950E94AB0381
:101190008093400308951F93CF93DF9300D000D036
:1011A000CDB7DEB7909106019817C9F0182F80933C
:1011B0000601BE016F5F7F4F0E94AF03EB81FC8190
:1011C000309719F489819A8106C069817A81412F0B
:1011D0008BE791E0099590934203809341038091BE
:1011E0004103909142030F900F900F900F90DF9169
:1011F000CF911F9108958DEC93E00E9475108DE6BC
:1012000093E00C947F0DCF93C82F8DE693E00E945E
:10121000E80C6C2F811105C08DE693E0CF910C9402
:10122000190D8DEC93E0CF910C941510CF93C82F2E
:1012300083FF04C081EE90E00E940309C0FF04C058
:1012400080EE90E00E940309C1FF04C082EE90E0AE
:101250000E940309C2FF04C086EE90E00E940309C9
:10126000C4FF04C083EE90E00E940309CF9108956B
:10127000CF93DF93D82FC92F907C662399F080916C
:101280004303811102C010924503809145038C2BCA
:1012900080934503911104C080E28D0F883020F0C7
:1012A000D0934303911108C080E28D0F883020F461
:1012B0008C2F0E94160905C0809144038C2B8093CB
:1012C00044038D2F9C2FDF91CF910C940309CF9372
:1012D000C82F8DE693E00E94E80C6C2F811105C0A9
:1012E0008DE693E0CF910C94410D8DEC93E0CF917E
:1012F0000C943C108DE693E00E94780D109243030D
:10130000109244038DEC93E00E9465108FEA93E005
:101310000C944C0FCF93DF93D82FC92F80914503A6
:10132000892780934503892F807C21F480E28D0FEB
:10133000883058F0809143038D1302C0109243030C
:10134000809144038C2780934403C3FF04C081EE43
:1013500090E00E946709C0FF04C080EE90E00E9408
:101360006709C1FF04C082EE90E00E946709C2FFD6
:1013700004C086EE90E00E946709C4FF04C083EEBB
:1013800090E00E9467098D2F9C2FDF91CF910C94E4
:101390006709909144038091450389230E941609AF
:1013A0008DE693E00E94E80C60914303811116C022
:1013B000662381F08DE693E00E94410D8DE693E077
:1013C0000E94EB0C609143038DE693E00E94190D9F
:1013D000109243038DE693E00C94EB0C662381F0AE
:1013E0008DEC93E00E943C108DEC93E00E94B50FD1
:1013F000609143038DEC93E00E941510109243031B
:101400008DEC93E00E94B50F8FEA93E00C945F0F90
:101410008FEA93E00C94850FBC0173708FEA93E020
:101420000C94370F85E194E00C94BC10682F85E193
:1014300094E00C94BE1085E194E00C94BA100895E9
:10144000FC01E859FF4F10823697262F30E0318398
:1014500020833297686570E0718360838091070113
:101460009FEF980F9093070181110C94C10A089582
:101470000F931F93CF93DF9300D000D01F92CDB76F
:10148000DEB78C01FC01E05AFF4F21E045E0BE01D0
:101490006F5F7F4F80810E94D90A8981813081F4FA
:1014A000F801EC59FF4F8A81808331968B818083CC
:1014B00031968C81808331968D81808381E001C05B
:1014C00080E00F900F900F900F900F90DF91CF91D1
:1014D0001F910F9108958C599F4FFC01608171817C
:1014E0008281938108950F93CF93DF93CDB7DEB7B9
:1014F00069970FB6F894DEBF0FBECDBF20E8260F68
:101500002983DE01129628E1629FB001112420E0B8
:1015100030E0F901E60FF71FE80FF91FE081F0E076
:10152000EF50FE4FE491ED932F5F3F4F283131058F
:1015300081F7FC01E05AFF4F00E021E049E1BE01E4
:101540006F5F7F4F80810E94210B69960FB6F894E0
:10155000DEBF0FBECDBFDF91CF910F910895CF9326
:10156000DF93EC01C859DF4F688121E0260F288303
:101570000E94730A8881843009F41882DF91CF9128
:10158000089510926C0381E080936A0310926903BE
:10159000589A599AE9EBF0E080818E7F80838081B0
:1015A0008D7F808388E48093B80085E48093BC00BD
:1015B0000895413208F043C090916C039111FCCF23
:1015C00091E090936C0320936A032FEF20934603DE
:1015D00010924803240F2093470390936B0390913C
:1015E0006B03880F892B80936B0380916903813093
:1015F00061F41092690380916B038093BB0080912A
:10160000BC0083FDF8CF85EC01C085EE8093BC0063
:1016100080916C038130E1F380914803841710F4CA
:1016200040914803A9E4B3E0962FFB018E2F891B5C
:10163000841718F48D918193F9CF842F089580E059
:1016400008950F93413208F04AC090916C039111B4
:10165000FCCF32E030936C0300936A033FEF30938A
:1016600046031092480340934703562FA9E4B3E082
:10167000FB013E2F351B341718F431913D93F9CF00
:1016800010926B0330916B03880F832B80936B0355
:1016900080916903813061F41092690380916B033A
:1016A0008093BB008091BC0083FDF8CF85EC01C026
:1016B00085EE8093BC00222321F080916C03823060
:1016C000D1F380914603803331F08F3F49F080326F
:1016D00021F492E005C093E003C094E001C091E0E2
:1016E000892F0F91089585ED8093BC008091BC00F7
:1016F00084FDFCCF10926C03089585EC8093BC00B0
:1017000010926C0308951F920F920FB60F9211243E
:101710002F933F934F935F936F937F938F939F93F9
:10172000AF93BF93EF93FF938091B900887F883286
:1017300039F170F4803109F130F4882309F466C07E
:101740008830D9F067C08831D9F0803279F162C031
:101750008034D9F150F4803349F1883309F05AC00C
:10176000809346030E947D0B55C0803511F188356A
:10177000A1F1883409F04EC04BC080916B0310C0BA
:101780009091480380914703981798F5E09148039A
:1017900081E08E0F80934803F0E0E75BFC4F80818F
:1017A0008093BB0085EC8093BC0034C080934603DB
:1017B0002FC0E091480381E08E0F80934803809111
:1017C000BB00F0E0E75BFC4F808390914803809181
:1017D0004703981738F385E8E6CFE091480381E0A6
:1017E0008E0F809348038091BB00F0E0E75BFC4FD5
:1017F000808380916A0381110BC081E0809369032B
:1018000084EA8093BC0010926C0304C010924603DB
:101810000E94730BFF91EF91BF91AF919F918F91B8
:101820007F916F915F914F913F912F910F900FBEDC
:101830000F901F901895FC0182818F5BFB018083C4
:1018400081E00895CF93DF93CDB7DEB769970FB6E8
:10185000F894DEBF0FBECDBFFC01DB019C919F5F02
:101860009C93BE016F5F7F4F89E1DB011D928A95DA
:10187000E9F729E0298384E08A8391E09D8383E06E
:101880008E839F8398872A8721E22B879C879D8759
:101890009F8722E2288B2FE3298B27E02B8B25E0E3
:1018A0002C8B8E8B20E430E0388F2F8B998F8281A8
:1018B0008B83838180688D8B49E150E080E00E94BA
:1018C000DF1769960FB6F894DEBF0FBECDBFDF916C
:1018D000CF910895FC01DB01828190E014962D9157
:1018E0003C91159782179307E1F511968C9111970A
:1018F0009C91913A61F4813091F1833011F4848D9F
:1019000003C0823071F5858D8093F10028C091323B
:1019100041F58B3021F412968C91848F20C08A304F
:1019200011F4158E1CC08930E1F4CF0116962D916B
:101930003C91179713964C91423039F42130310580
:1019400081F461E070E04E9608C0413051F42830D7
:10195000310539F468E070E00B960E94061881E0CA
:10196000089580E00895FC01DB018C918138B9F481
:1019700013968C911397823291F4828190E01496A1
:101980002D913C9115972817390749F48285848F4A
:101990004FE350E061EF72E080E80C94DF1780E0E5
:1019A00090E00895FC0181E0848385839F01255E9A
:1019B0003F4F378326831186108622E231E0318340
:1019C00020838287848F858F168E81EC838F089584
:1019D000FC01848D0895EF92FF920F931F93CF9394
:1019E000DF938C01EC012B967C0183E1E80EF11C66
:1019F00048E050E0BE01C7010E941E1C892B81F007
:101A0000F801838148E050E0BE0180640E943017F5
:101A100028E0FE01D70101900D922A95E1F702C05E
:101A20008FEF9FEFDF91CF911F910F91FF90EF907C
:101A3000089520E2260F283058F441E050E001C01C
:101A4000440F2A95EAF7FC012385422B438716C0F1
:101A5000FC013D9620E030E04191641779F041119E
:101A600005C0FC01E20FF31F658708C02F5F3F4FE1
:101A70002630310589F780E090E0089581E090E01C
:101A8000089520E2260F283068F4622F21E030E02C
:101A900001C0220F6A95EAF72095FC0133852323C4
:101AA000238723C0FC01AC014A5F5F4FDC011D9618
:101AB0002C911D97621303C01D961C921D971196C1
:101AC0004A175B07A1F720E03585332351F0DC018D
:101AD000A20FB11D1D966C911D971D963C936587B5
:101AE0002F5F3196E417F50779F781E090E00895CC
:101AF0000B9628E0FC0111922A95E9F70895CF93FF
:101B0000DF93EC010E94F315BE010E94AC15CE01DB
:101B10000E94780DCE01DF91CF910C94EB0C8DE6F5
:101B200093E00C94D20CFB018BE6808382E68183E8
:101B300089E682838FE6838380E3848381E38583E0
:101B400086E00895CF93DF93CDB7DEB769970FB6E0
:101B5000F894DEBF0FBECDBFFC01DB018C918F5F1F
:101B60008C93BE016F5F7F4F89E1DB011D928A95E7
:101B7000E9F729E0298384E08A8391E09D8383E06B
:101B80008E832A8721E22B879C879D879F8722E26D
:101B9000288B27E02B8B25E02C8B8E8B20E430E0EC
:101BA000388F2F8B998F82818B8397858089998B32
:101BB0008A8B838180688D8B49E150E080E00E94B0
:101BC000DF1769960FB6F894DEBF0FBECDBFDF9169
:101BD000CF910895CF93DF93FC01DB01828190E0E8
:101BE00014962D913C91159782179307A9F511969C
:101BF0009C9111978C91813A31F481E0913069F197
:101C0000933051F52AC0813239F59B3021F4129678
:101C10008C91818B05C09A3029F412968C91828B1D
:101C200081E01BC09930C1F4EF0116968D919C9113
:101C300017978230910539F462E070E0CF01439646
:101C40000E94061809C0019739F461E070E0CF01E5
:101C500044960E9406181B8A80E0DF91CF91089578
:101C6000EF92FF920F931F93CF93DF93FB0120819D
:101C7000213851F52381223239F5DC0112962C915D
:101C800030E04481558142175307F1F4EC010D8592
:101C90001E85E12CF12C0115110591F0F80144810C
:101CA00055816281738180E80E94DF178F3FFFEFCB
:101CB0009F0769F0E80EF91ED8010D911C91EBCF3A
:101CC00081E0898BC70105C080E090E002C08FEF02
:101CD0009FEFDF91CF911F910F91FF90EF900895AB
:101CE000FC01A585B685109719F47687658709C02C
:101CF0008D919C911197009711F0DC01F9CF6D93B4
:101D00007C9327853089DB0114968D919C911597E2
:101D1000820F931F908B87870895AF92BF92CF92C7
:101D2000DF92EF92FF920F931F93CF93DF931F9257
:101D3000CDB7DEB77C0169836A01590141E050E00B
:101D4000BE016F5F7F4FFC0183810E9430178C01C1
:101D500097FD0BC0F7018381A501B60180640E9445
:101D6000301797FD02C0800F911F0F90DF91CF9128
:101D70001F910F91FF90EF90DF90CF90BF90AF90A9
:101D80000895AF92BF92CF92DF92EF92FF921F938E
:101D9000CF93DF935C01162F7A0169010E948D0EAB
:101DA000EC01D5011B96ED91FC911C97309729F021
:101DB0009C01A601B701812F0995CE01DF91CF913A
:101DC0001F91FF90EF90DF90CF90BF90AF9008955C
:101DD000CF93DF93EC0181E08C838D839E01265F9E
:101DE0003F4F3F832E83198618862EE231E03983D8
:101DF00028831C861B861E861D86188A1F86898B53
:101E00008A8B1B8A1C8A81EC8A870E94F315BE018B
:101E1000DF91CF910C94AC158091A103811107C083
:101E20008CE893E00E94E80E81E08093A1038CE8A7
:101E300093E008958091BF03811113C01092AA030B
:101E40001092A90380E393E09093AC038093AB03DB
:101E500089E190E09093AE038093AD0381E080939D
:101E6000BF030E940C0F69EA73E00C94700EDC0152
:101E700020E030E04D915D91452B41F4220F331F5E
:101E8000FC01E20FF31F7183608308952F5F3F4FC2
:101E90002430310579F7089528E0FC0111922A9544
:101EA000E9F70895CF93DF93EC010E940C0F28E02F
:101EB00030E0AE0164E0DF91CF910C94C10E0F933E
:101EC0001F93CF93DF93EC018C01085F1F4F48E015
:101ED00050E0BC01C8010E941E1C892B51F0CE01AC
:101EE0000E94520F88E0FE01D80101900D928A9560
:101EF000E1F7DF91CF911F910F91089528E0FC0148
:101F000011922A95E9F70C945F0F0C947E0F8FEADB
:101F100093E00C941A0F80910704811113C0109262
:101F2000C8031092C70389E493E09093CA03809397
:101F3000C90381E490E09093CC038093CB0381E0CC
:101F4000809307040E940C0F67EC73E00C94700EF2
:101F5000CF93DF93EC010E940C0F2DE130E0AE0136
:101F600068E0DF91CF910C94C10EEF92FF920F9336
:101F70001F93CF93DF93EC017C018DE1E80EF11C00
:101F80004DE150E0BE01C7010E941E1C892B09F4DF
:101F900043C00D8D1881802F80958123B1F04CE1D5
:101FA00050E0BE016F5F7F4FCE014E960E941E1C17
:101FB000892B59F01D8F0E940C0F2DE130E0A701F5
:101FC00068E00E94C10E0D8F19C0812F809580237B
:101FD000A9F04CE150E0BE016F5F7F4FCE014E96FD
:101FE0000E941E1C892B51F008830E940C0F2DE1CA
:101FF00030E0AE0168E00E94C10E1883CE010E945D
:10200000A80F1816190654F42DE1FE01D70101900E
:102010000D922A95E1F702C08FEF9FEFDF91CF91EC
:102020001F910F91FF90EF9008956E3D90F4262F31
:10203000269526952695FC01E20FF11D677081E03B
:1020400090E001C0880F6A95EAF79181892B81831E
:102050000DC0605E683068F421E030E001C0220FFE
:102060006A95EAF7FC013081232B208381E090E020
:10207000089580E090E008956E3D98F4262F26950F
:1020800026952695FC01E20FF11D677081E090E036
:1020900001C0880F6A95EAF7809591818923818331
:1020A0000EC0605E683070F421E030E001C0220FA5
:1020B0006A95EAF72095FC0130812323208381E093
:1020C00090E0089580E090E008952DE1FC011192E8
:1020D0002A95E9F70895CF93DF93EC010E946510EC
:1020E000CE01DF91CF910C94A80F0C946B108DEC66
:1020F00093E00C948B0F80911604811113C0109201
:10210000100410920F048AE893E0909312048093D5
:10211000110488E190E0909314048093130481E00B
:10212000809316040E940C0F6FE074E00C94700E04
:102130000F931F93CF93DF93EB018A010E940C0F43
:102140009801AE0165E0DF91CF911F910F910C9442
:10215000C10ECF93DF931F92CDB7DEB7198241E056
:1021600050E0BE016F5F7F4F0E9498100F90DF918B
:10217000CF9108950C94A9100C94A910CF93DF93DC
:102180001F92CDB7DEB76983633829F481E994E003
:102190000E94281A07C041E050E0BE016F5F7F4FE8
:1021A0000E9498100F90DF91CF91089585E194E0FF
:1021B0000C947B10CF93DF93CDB7DEB769970FB642
:1021C000F894DEBF0FBECDBFFC01DB019C919F5F89
:1021D0009C93BE016F5F7F4F89E1DB011D928A9561
:1021E000E9F729E0298384E08A8391E09D8383E0F5
:1021F0008E832A8721E22B879C879D879F8722E2F7
:10220000288B25E3298B27E02B8B25E02C8B8E8BCD
:1022100020E430E0388F2F8B998F82818B838381EC
:1022200080688D8B49E150E080E00E94DF1769965D
:102230000FB6F894DEBF0FBECDBFDF91CF910895EA
:10224000FC01838180640C9430170A970C94201150
:10225000FB0120812138B9F423812232A1F4DC0171
:1022600012962C91129730E0448155814217530702
:1022700051F421E052962C9345E350E062EA73E07A
:1022800080E80C94DF1780E090E00895DC01FB010A
:1022900012968C91129790E02481358182179307D2
:1022A000D1F491818081813A31F481E0913091F0D3
:1022B000933089F411C0813271F49B3021F4828112
:1022C00052968C9305C09A3031F4828153968C9348
:1022D00081E00895089580E00895CF93DF93EC01A5
:1022E00081E08C838D839E012F5E3F4F3F832E8341
:1022F000198618861D861C861F861E86188A2AE364
:1023000031E03983288328E431E03B872A878A8BB0
:102310008B8B81EC898B0E94F315BE01DF91CF91ED
:102320000C94AC158EE194E00C946D11CF92DF9279
:10233000EF92FF921F93CF93DF93162FC42F682F36
:1023400070E080E090E00E94EB1A6B017C016C2F42
:1023500070E080E090E00E94EB1A9B01AC01C701A5
:10236000B6010E944A1A6B017C012DEC3CEC4CE456
:102370005EE30E949D1BC12FD0E087FD15C0103584
:1023800098F0BE010D2E000C880B990B0E94ED1ADF
:10239000A70196010E94A21B20E030E040EE51E42C
:1023A0000E94451A87FD0EC0BE01DD0F880B990BF8
:1023B0000E94ED1AA70196010E94A21B0E94BC1A5E
:1023C000862F01C08CE1DF91CF911F91FF90EF909C
:1023D000DF90CF900895BF92CF92DF92EF92FF925D
:1023E0000F931F93CF93DF9300D000D0CDB7DEB70C
:1023F0007C01162F042F80E1689FD0011124AB5877
:10240000BD4FA40FB11DE0910201F09103018C9129
:1024100009959A8389831C821B82D7011896ED91B6
:10242000FC911997AE014D5F5F4FBE016C5F7F4F0E
:10243000CE0101960995C72ED82E8B81882379F07D
:10244000D7011696ED91FC911797309741F0BE0198
:102450006C5F7F4FCE0101960995C72ED82E8C81D7
:10246000811119C0F701F2844FEF8F2D0E94961150
:10247000B82E4FEF6C2D8F2D0E949611E82E4FEF46
:102480006D2D8F2D0E9496112B2D3E2D482F602FE4
:10249000812F0E944D080F900F900F900F90DF91A9
:1024A000CF911F910F91FF90EF90DF90CF90BF9051
:1024B0000895FC0191818081911104C02CE8280FBE
:1024C0002E3020F1863B21F0853B11F08D3C19F434
:1024D0009835F1F41BC0803B19F49C34C9F416C044
:1024E000813B19F49C34B1F411C0873B19F4983541
:1024F00089F40CC09C3521F427E1280F223030F0FC
:10250000823E41F481E09C3429F405C081E00895C5
:102510009C35B1F780E008951F93CF93DF93FC01C2
:10252000C1811081C1112AC0212F2B7F203E09F4C7
:102530007EC0233E09F482C0213E09F486C0223EBB
:1025400079F0193289F01C3491F02CEF210F2A31E7
:1025500088F022EE210F2A3008F03FC0DEEB16C0D3
:10256000D9E177E6C9E160C070E0D2E85DC070E013
:10257000DFEF5AC0DEE67BE6C6E556C0C03569F53A
:10258000712F2FEE210F223020F4D0E07EEBCEEB26
:102590004BC02FEB210F223008F45EC0143409F435
:1025A0005BC02BED210F223008F45AC027ED210F1C
:1025B000223008F455C0103609F455C02FEF210F12
:1025C000223008F453C02CEF210F233008F44EC002
:1025D00028EF210F233008F449C0D12F1F3209F40E
:1025E00049C0D03309F446C0D63209F443C0D732CB
:1025F00009F440C0D13309F486C0CC2309F43EC0AD
:102600000E94591281117BC0C11189C01C3209F48A
:1026100082C0183209F48BC01B3209F47CC01A3214
:1026200009F094C070E0DCE86C2F8D2F96C06091AB
:10263000590170915A0180915B018FC060915601E0
:10264000709157018091580188C060915C01709130
:102650005D0180915E0181C0D0E070EFC0EFE4CFFA
:10266000DBE170E601C0DBE1C9E5DECFDEE37BED57
:10267000CBECDACFC83009F06DC02EC0D73809F4E2
:1026800047C0D43609F444C023ED210F2C3020F18B
:102690001A3330F0163418F128E9210F2C30F8F0F5
:1026A00027EB210F2630F8F02AEB210F2330F0F032
:1026B00021EB210F2430E8F01736F1F02BE7210F42
:1026C0002230D0F0133508F49BCF1436A8F020E563
:1026D000210F2E3288F094CFDEEB70EA02C0DEEBE1
:1026E00070E0C0E0A1CFDEEB7EEBFBCFDFEF74E666
:1026F000F8CFD8EC78EC05C0D0E07FE5F2CFD8EC8D
:1027000070E0C8EC91CF2C2F277F09F079CFC0E083
:10271000DEEB70EA89CFDCE87CE8CCE885CFC33417
:1027200051F0C43499F485ED810F833048F4DAEF29
:102730007AEFCAEF79CF111109C070E0CFEF74CFF3
:10274000113021F4DFE570E0CFE56ECFD8E778E710
:10275000C8E76ACFC11154CF97CFDF91CF911F91B6
:1027600008952CE832E1FC013783268308950F9306
:102770001F93CF93DF938C01C0E0D0E04D2F6C2FDF
:10278000C8010E94EB11DF5FD031C1F7CF5FC430C9
:10279000A1F71093330400933204DF91CF911F917E
:1027A0000F910895CF93DF93EC010E94B713D0935C
:1027B0003304C0933204DF91CF910895CF92DF921A
:1027C000EF92FF92CF93DF93EC01C0903603D0904D
:1027D0003703E0903803F0903903DD24EE24FF2422
:1027E0008A819B81AC81BD818C159D05AE05BF059D
:1027F00019F0CE010E94B713CA82DB82EC82FD82FF
:10280000DF91CF91FF90EF90DF90CF900895CF931D
:10281000DF931F92CDB7DEB76983DC01ED91FC91A8
:102820000280F381E02D41E050E0BE016F5F7F4FF9
:1028300009950F90DF91CF910895CF93DF93EC012D
:102840008C859D8597FF05C082E00E94FF169D87BD
:102850008C878C859D85DF91CF91089583E00E94C0
:10286000161790E0089583E00C949319FC01848579
:10287000958597FD06C082E00E94AB1690E0019618
:10288000089582E00E94AB1690E00895FC018485D3
:10289000958597FD05C02FEF3FEF35872487089575
:1028A00082E00C94FF16CF93DF93EC01809113012B
:1028B000882331F083E00E9430171816190634F08F
:1028C00081E090E09B838A8380E090E0DF91CF916C
:1028D0000895EEEFFFE72591349181E02B3F3C4DC9
:1028E00009F080E00895FC0190819E5F908342E4AE
:1028F00050E067ED73E080E80C94DF17FC01818104
:102900009081913A59F4813209F065C047E050E076
:102910006CE071E080E00E94DF175BC0913209F04B
:102920005AC0833269F482819381A0E0B0E0809341
:10293000080190930901A0930A01B0930B0149C0CB
:10294000803239F467E070E08CE091E00E94061874
:1029500040C0823209F03DC08281809313010E9401
:102960006914882319F0EEEFFAE002C0E0E0F8E025
:1029700080910C0190910D01A0910E01B0910F0179
:10298000803B9440A105B10541F58091130180FD84
:1029900024C0EE3F8AE0F80751F0808191818737AB
:1029A00027E7920721F09093FF0A8093FE0A87E7BA
:1029B00097E79183808380916000809384049BE0FB
:1029C00088E10FB6F894A895809360000FBE9093AD
:1029D000600081E0089580E00895808191818737CB
:1029E0009747B9F7A895809160008861809360004F
:1029F0008091840480936000EE3F8AE0F80739F00C
:102A00008091FE0A9091FF0A91838083E2CF109219
:102A1000FF0A1092FE0ADDCF2FEF3FEFFC01358752
:102A200024870895E4E3F4E01382128288EE93E0B1
:102A3000A0E0B0E084839583A683B78383E691E02A
:102A4000918380838FEF9FEF958784870895EF921E
:102A5000FF920F931F93CF93DF937B01FC01C28101
:102A6000D38100E010E0209781F0E881F9810280B5
:102A7000F381E02DB701CE01099597FD08C0080F3D
:102A8000191F0884D985C02DEECFC80102C08FEF71
:102A90009FEFDF91CF911F910F91FF90EF900895DD
:102AA0000F931F93CF93DF938B01FC01C281D381DE
:102AB000209771F0E881F9810480F581E02DB8015B
:102AC000CE010995009731F40884D985C02DF0CF47
:102AD00080E090E0DF91CF911F910F9108950F93C7
:102AE0001F93CF93DF938B01FC01C281D381209789
:102AF00071F0E881F9810680F781E02DB801CE01FF
:102B00000995080F111D0884D985C02DF0CFF80153
:102B10001082DF91CF911F910F9108950F931F9312
:102B2000CF93DF938B01FC01C281D381209771F099
:102B3000E881F9810190F081E02DB801CE0109957D
:102B4000811105C00884D985C02DF0CF80E0DF91C8
:102B5000CF911F910F910895CF93DF93FC01DB017B
:102B6000218114968C91149790E0820F911D089703
:102B7000A4F5C281D381209719F47383628308C0BE
:102B800088859985009711F0EC01FACFB987A8875D
:102B9000808112968C931297818113968C93139750
:102BA000908115968C911597890F808380E01496FB
:102BB0009C911497891798F41696CD91DC911797EC
:102BC000C80FD11D9881C181D0E0CC5EDE4F9883C3
:102BD00091819F5F91838F5FEACF80E001C081E0A8
:102BE000DF91CF9108958091890481110DC082E019
:102BF0008093850484E08093860410928804109268
:102C0000870481E08093890485E894E008954091E9
:102C100094045091950420919204309193044217AA
:102C20005307B4F49091E8009570E1F39091E800B7
:102C300092FD19C08093F1008091940490919504C5
:102C400001968F739927892B19F48EEF8093E800F2
:102C500080919404909195040196909395048093AB
:102C6000940481E0089580E00895DF92EF92FF924E
:102C70000F931F93CF93DF93D82EF92EE42E062FB8
:102C800010E0C8010196880F0E94071683E00E9499
:102C90000716CD2DDF2D0C0F1D1FC017D10789F092
:102CA000E7FE03C0FE01849101C088810E940716DF
:102CB000F82E80E00E9407168F2121968111EDCF1A
:102CC00001C081E0DF91CF911F910F91FF90EF90B4
:102CD000DF9008958091D70081608093D70080EACB
:102CE0008093D80089B5806189BD89B5826089BD2E
:102CF00009B400FEFDCF61E070E080E090E00E944A
:102D0000E5028091D8008F7C80618093D80080910B
:102D1000E000807F8093E0000895CF93DF931F92BF
:102D2000CDB7DEB71982CE0101960E9473140E94BE
:102D3000F315BE016F5F7F4F0E94271589810F90A9
:102D4000DF91CF9108952FB7FC012083F89467702D
:102D50006093E9000895CF93DF931F92CDB7DEB75C
:102D6000682FCE0101960E94A3168091F2009981EE
:102D70009FBF0F90DF91CF910895EF92FF920F9335
:102D80001F93CF93DF931F92CDB7DEB79091980436
:102D9000992311F057FF03C08FEF9FEF28C08A01DE
:102DA0007B01682FCE0101960E94A3162091F200AC
:102DB00030E0021713070CF49801822FF70194E614
:102DC000815030F0909399044091F1004193F8CFF5
:102DD0002115310521F08091F200882321F08981AD
:102DE0008FBFC90104C08BE68093E800F8CF0F9035
:102DF000DF91CF911F910F91FF90EF900895CF93A6
:102E0000DF931F92CDB7DEB741E050E0BE016F5FA8
:102E10007F4F0E94BD16019719F4898190E002C08E
:102E20008FEF9FEF0F90DF91CF910895CF93DF93B6
:102E30001F92CDB7DEB7682FCE0101960E94A31670
:102E40009091E800892F807295FF04C09091F20064
:102E500080E4891B99819FBF0F90DF91CF910895E6
:102E60005F926F927F928F929F92AF92BF92CF921A
:102E7000DF92EF92FF920F931F93CF93DF931F92F6
:102E8000CDB7DEB7982E6B01B42E052F8091980434
:102E9000811103C08FEF9FEF76C08091960480FF71
:102EA00005C08091E00082608093E000EB2CF02E62
:102EB000A12C8AEF882E892D8072682E892D80742E
:102EC000582E9AE3792EE114F10419F4AA2009F49A
:102ED00055C0892D0E941617182F81110AC08A9497
:102EE0008820C1F261E070E080E090E00E94E5029D
:102EF000EACF90E0E816F9060CF41E2D692DCE01FC
:102F000001960E94A3168091E80085FF34C0812FAE
:102F100090E0E81AF90A662029F01150A0F010920A
:102F2000F100FBCFF60197FE0AC0115050F024913A
:102F30002093F1003196F9CF21912093F1001150A7
:102F4000D8F7C80ED91EAA2019F07092E8000BC05D
:102F50008091E80085FD09C07092E800AA24A3943E
:102F6000E114F10441F0A12C06C0E114F10419F4BC
:102F700051107092E80089818FBFA5CF84E68093BD
:102F80009A048B2D902F0F90DF91CF911F910F916D
:102F9000FF90EF90DF90CF90BF90AF909F908F9079
:102FA0007F906F905F9008951092E90010929504C1
:102FB0001092940490939304809392040895DF9266
:102FC000EF92FF920F931F93CF93DF93D82E8A0136
:102FD0007B01E40EF51EEB01CE15DF0571F0D7FE87
:102FE00003C0FE01849101C088810E9407162196CA
:102FF0008111F2CF8FEF9FEF01C0C801DF91CF9118
:103000001F910F91FF90EF90DF900895CF93DF9382
:10301000EC019B01B4E6ABEF21153105F1F0A901FC
:103020002134310514F040E450E08091E80082FF43
:10303000FCCF942FFB01E21BF30BEC0FFD1F915013
:1030400028F08091F10080833196F9CFB0939904F4
:10305000A093E800241B350BDFCFCB01DF91CF918C
:1030600008951F920F920FB60F921124CF92DF9204
:10307000EF92FF920F931F932F933F934F935F9382
:103080006F937F938F939F93AF93BF93EF93FF9330
:10309000CF93DF93CDB7DEB76C97DEBFCDBF109275
:1030A000E9008091E80083FF1FC189E0FE01759669
:1030B000FE2E0F2F815029F09091F10090833196D0
:1030C000F9CF84E68093990482EF8093E8008D899C
:1030D00087FF05C09091E80090FFFCCF03C09EEFF2
:1030E0009093E800982F907609F0D7C09E894F8979
:1030F000588D2F89188D91110CC0803829F480913A
:1031000097048093F10002C01092F1001092F10038
:10311000E4C0913051F48111E0C04130510509F013
:10312000DCC0809197048D7F0BC0933061F48111D6
:10313000D4C04130510509F0D0C08091970482601D
:1031400080939704CAC0953049F48091E80080FFCD
:10315000FCCF822F80688093E300BFC0963009F0D7
:103160006FC0CB8CDC8C123069F580E090E00E945F
:10317000D4170E948D1699E09E012F5F3F4F790171
:10318000F901292F11922A95E9F799831A8391E081
:103190009E8390EA98879AEF9987209194043091C2
:1031A0009504275F3F4F3C832B838D83C6010E948C
:1031B000D41749E050E0B70180E00E94DF170E9479
:1031C0008D168BC0C6010E94D4170E94F3156F2D77
:1031D000702F0E945015009719F00CF07EC081C02E
:1031E000113009F46FC0133009F07BC08F89882338
:1031F00009F46BC0823029F440E868E086E394E08B
:1032000006C0813039F440E86AE08BE294E00E9425
:10321000351655C0833009F064C00E94F3158E0145
:103220000F5F1F4FB8010E946F15F8010190002039
:10323000E9F73197BF01601B710B40E0C801E7CF90
:10324000973009F44EC0983021F481E08093F1006A
:1032500044C0993009F041C0837009F042C0E5E1F3
:10326000F1E081E031E096E32081211109C08EE791
:103270008093EA001092EA008F89809398042DC011
:103280008093E9003093EB0021912093EC00909320
:10329000ED008F5F873041F7EACF8B8D9C8D0E94C8
:1032A000D417898D811105C08F2D902F0E947E1417
:1032B00006C00E94F3156F2D702F0E948E15882373
:1032C00081F00BC069E174E002C06FE374E0FB01C0
:1032D000449150E080E80E94DF178EEF8093E80071
:1032E00003C081E28093EB006C960FB6F894DEBFCA
:1032F0000FBECDBFDF91CF91FF91EF91BF91AF9105
:103300009F918F917F916F915F914F913F912F91FD
:103310001F910F91FF90EF90DF90CF900F900FBE15
:103320000F901F9018958093E9008091F2008823F8
:1033300019F08AE38093E80008951F920F920FB668
:103340000F9211242F933F934F935F936F937F932B
:103350008F939F93AF93BF93CF93EF93FF93C091BE
:10336000E1008091E100837F8093E100C3FF0FC003
:103370001092E90081E08093EB001092EC0082E370
:103380008093ED001092980488E08093F000C2FFD3
:1033900015C083E00E94931980919A04882329F034
:1033A00080919A04815080939A0480919904882393
:1033B00029F080919904815080939904C4FF10C032
:1033C0008091E2008E7E81608093E2008091E10036
:1033D0008F7E8093E100809196048E7E806111C083
:1033E000C0FF11C08091E2008E7E80618093E20078
:1033F0008091E1008E7E8093E100809196048E7E24
:10340000816080939604FF91EF91CF91BF91AF912E
:103410009F918F917F916F915F914F913F912F91EC
:103420000F900FBE0F901F90189510929804109255
:103430009704109296040E946A16E1EEF0E08081F3
:103440008E7E80838DE08093E200559A209A0895C5
:103450008091E0008D7F8093E0008091E00081FD0D
:1034600008C08091960480FF04C08091970481FD7C
:1034700002C080E008950E946A168091E000826098
:103480008093E00081E0089508950E94281B08F4CD
:1034900081E008950E945E1A0C94631B0E945C1BDD
:1034A00058F00E94551B40F029F45F3F29F00C941E
:1034B0004C1B51110C94971B0C94521B0E94741BB3
:1034C00068F39923B1F3552391F3951B550BBB2753
:1034D000AA2762177307840738F09F5F5F4F220F98
:1034E000331F441FAA1FA9F335D00E2E3AF0E0E88F
:1034F00032D091505040E695001CCAF72BD0FE2FD9
:1035000029D0660F771F881FBB1F2617370748076C
:10351000AB07B0E809F0BB0B802DBF01FF27935824
:103520005F4F3AF09E3F510578F00C944C1B0C9481
:10353000971B5F3FE4F3983ED4F3869577956795A4
:10354000B795F7959F5FC9F7880F911D9695879559
:1035500097F90895E1E0660F771F881FBB1F621778
:1035600073078407BA0720F0621B730B840BBA0B36
:10357000EE1F88F7E09508950E947C1B88F09F5706
:1035800098F0B92F9927B751B0F0E1F0660F771F87
:10359000881F991F1AF0BA95C9F714C0B13091F07D
:1035A0000E94961BB1E008950C94961B672F782F0C
:1035B0008827B85F39F0B93FCCF386957795679542
:1035C000B395D9F73EF490958095709561957F4FAE
:1035D0008F4F9F4F0895E89409C097FB3EF4909554
:1035E0008095709561957F4F8F4F9F4F9923A9F0DC
:1035F000F92F96E9BB279395F6958795779567956B
:10360000B795F111F8CFFAF4BB0F11F460FF1BC0AE
:103610006F5F7F4F8F4F9F4F16C0882311F096E941
:1036200011C0772321F09EE8872F762F05C06623EF
:1036300071F096E8862F70E060E02AF09A95660FA8
:10364000771F881FDAF7880F9695879597F9089561
:10365000990F0008550FAA0BE0E8FEEF16161706A3
:10366000E807F907C0F012161306E407F50798F00B
:10367000621B730B840B950B39F40A2661F0232B24
:10368000242B252B21F408950A2609F4A140A695A0
:103690008FEF811D811D089597F99F6780E870E085
:1036A00060E008959FEF80EC089500240A941616B8
:1036B000170618060906089500240A941216130620
:1036C000140605060895092E0394000C11F48823AE
:1036D00052F0BB0F40F4BF2B11F460FF04C06F5FCA
:1036E0007F4F8F4F9F4F089557FD9058440F551FA0
:1036F00059F05F3F71F04795880F97FB991F61F074
:103700009F3F79F087950895121613061406551FEA
:10371000F2CF4695F1DF08C0161617061806991F56
:10372000F1CF86957105610508940895E894BB274B
:1037300066277727CB0197F908950E94281B08F484
:103740008FEF08950E94B51B0C94631B0E94551BBC
:1037500038F00E945C1B20F0952311F00C944C1B58
:103760000C94521B11240C94971B0E94741B70F331
:10377000959FC1F3950F50E0551F629FF001729F16
:10378000BB27F00DB11D639FAA27F00DB11DAA1F25
:10379000649F6627B00DA11D661F829F2227B00D72
:1037A000A11D621F739FB00DA11D621F839FA00DFD
:1037B000611D221F749F3327A00D611D231F849F4D
:1037C000600D211D822F762F6A2F11249F575040A4
:1037D0009AF0F1F088234AF0EE0FFF1FBB1F661F1F
:1037E000771F881F91505040A9F79E3F510580F0E8
:1037F0000C944C1B0C94971B5F3FE4F3983ED4F35E
:10380000869577956795B795F795E7959F5FC1F78B
:10381000FE2B880F911D9695879597F90895EE0FC9
:10382000FF1F0590F491E02D0994FB01DC0102C01B
:1038300005900D9241505040D8F70895FB01DC01EE
:1038400004C08D910190801921F441505040C8F777
:10385000881B990B089512E0CBE2D2E004C0FE0170
:103860000E940F1C2196CC32D107C9F7F894FFCFE4
:1038700002017A0620FFFF01FFFFFFFF00E10000C9
:103880000000000000C18081000000020101000072
:1038900000006A0C220CB30C1B0C00000000EA0DA7
:1038A000A20D300E930D000000004611DA10281111
:1038B0001B0C2011F6FF000025110000000077030B
:1038C000D213DE13EB11978FBEBA99646A8C6A002B
:1038D000000000071453142E143314361446141D1C
:0238E0001400D2
:1070000055C000006EC000006CC000006AC00000E7
:1070100068C0000066C0000064C0000062C00000DC
:1070200060C000005EC00000FEC400005AC0000046
:1070300058C0000056C0000054C0000052C00000FC
:1070400050C00000DDC000004CC000004AC000007D
:1070500048C0000046C0000044C0000042C000001C
:1070600040C000003EC000003CC000003AC000002C
:1070700038C0000036C0000034C0000032C000003C
:1070800030C000002EC000002CC000002AC000004C
:1070900028C0000026C0000024C0000022C000005C
:1070A00020C000001EC000001CC0000011241FBE34
:1070B000CFEFDAE0DEBFCDBF11E0A0E0B1E0E2E06B
:1070C000FFE702C005900D92AC3AB107D9F721E075
:1070D000ACEAB1E001C01D92AC3BB207E1F73DD391
:1070E0000EC78ECF84E08093E9008091E80085FF91
:1070F00003C08091F10008958091E8008B77809320
:10710000E8008091E80082FDF0CF8EB38111F9CFC5
:1071100080E0089593E09093E9009091E80095FF56
:1071200003C08093F10008959091E8009E779093BA
:10713000E8009091E80090FDF4CF9EB39111F9CF53
:10714000089544E063E071E080EB7AC3CF93DF936E
:1071500000D000D01F92CDB7DEB784E08983809144
:1071600002018695869586958A831B821C828FEF05
:107170008D8345E0BE016F5F7F4F80EB61D30F9041
:107180000F900F900F900F90DF91CF910895F8948A
:1071900010926F001092810010928500109284006E
:1071A00081E085BF15BE0C940000089584B7877FE9
:1071B00084BF0FB6F894A895809160008861809391
:1071C0006000109260000FBE90E880E00FB6F89467
:1071D00090936100809361000FBE81E085BF82E0E3
:1071E00085BFE1E6F0E090831082109289009AEF6B
:1071F0009093880080936F0083E080938100FBC3AD
:107200001F920F920FB60F9211242F938F939F937B
:10721000EF93FF931092850010928400F0E0E0E07D
:1072200085919491019649F08091AC019091AD01C6
:1072300001969093AD018093AC01FF91EF919F91E6
:107240008F912F910F900FBE0F901F90189542E0D5
:1072500061EC82E065D342E161E883E061D342E121
:1072600060E884E05DC38091B401982F9F779132EC
:10727000B9F49091B5019032A1F0913289F4813A3C
:1072800079F48091E800877F8093E80067E070E000
:1072900087E091E079D48091E8008B778093E800D3
:1072A00008958132E9F78091E800877F8093E800B4
:1072B00067E070E087E091E0C0D48091E8008E77CD
:1072C000EDCF6F927F928F929F92AF92BF92CF92AB
:1072D000DF92EF92FF920F931F93CF93DF9384E09F
:1072E0008093E9008091E80082FF28C2FBDEC82F6E
:1072F00028DF2CDF809102018F5F80930201C5346B
:1073000051F58CE393E79093AD018093AC0107B600
:1073100000FCFDCFF999FECF81E180935700E895FD
:107320008DE0F8DE83E08093E9009091E8008091A1
:10733000E8008E778093E80095FFF3C18091E80024
:1073400080FFF9C184E08093E9008091E8008B77A9
:107350008093E800F3C1C43511F4C4DEE1CFCC342E
:10736000F9F2C035E9F2C43721F484E4D3DE80E0D9
:10737000D8CF89E5C136A9F2C134D1F4B3DEC82F24
:10738000B1DE2C2F30E0322F2227330F90E0880F10
:10739000991F822B932B092E000CAA0BBB0B8093F9
:1073A000AE019093AF01A093B001B093B101B8CFFB
:1073B00083E5C03709F4B5CFC33549F4C2EAD1E05B
:1073C0008991A8DE21E0C93AD207D1F7ABCFC63503
:1073D00021F481E39FDE80E3A4CFC33731F487E853
:1073E00099DE85E997DE8EE19CCFC536B9F4F0E0F1
:1073F000E0E083E095E080935700E89507B600FC55
:10740000FDCF90935700E89507B600FCFDCFE058FC
:10741000FF4FE11520E7F20771F782CF89E0E1E045
:10742000F0E0C23779F089E0F0E0E0E0C63451F0F6
:1074300089E0E3E0F0E0CE3429F0C13539F489E0A9
:10744000E2E0F0E08093570084916BCFC23631F4D4
:1074500089E560DE80E05EDE80E863CFC23419F04B
:10746000C73609F0CEC01092AD011092AC013ADEE1
:10747000082F10E0102F002735DE082B33DED82F21
:107480008BEB8D0F823010F08FE34BCF10926F009B
:10749000C73609F045C081E180935700E895C0E008
:1074A000BB24B3940150110920F482E080936F0053
:1074B00039CFC090AE01D090AF01E090B001F09014
:1074C000B101D634B9F4EC2FF0E0EC29FD29849118
:1074D00021DECC2369F082E0C80ED11CE11CF11C36
:1074E000C092AE01D092AF01E092B001F092B10132
:1074F000CB25D8CFD701C601B695A7959795879587
:10750000E8D408DEE2E0CE0ED11CE11CF11CC092F2
:10751000AE01D092AF01E092B001F092B101C2CFC2
:107520008090AE019090AF01A090B001B090B101F9
:10753000D63441F483E0F40180935700E89507B610
:1075400000FCFDCF712CC0E06624639424C0D634C7
:1075500009F034C0CC2379F1C090AE01D090AF01D6
:10756000E090B001F090B101BDDD982F872DF601BC
:107570000C0160925700E8951124F2E0CF0ED11C67
:10758000E11CF11CC092AE01D092AF01E092B001BB
:10759000F092B101C62501501109C8F6D63441F464
:1075A00085E0F40180935700E89507B600FCFDCF15
:1075B0008DE0B0DD7ACF96DD782EECCF93DD682FAD
:1075C0008091AE019091AF01A091B001B091B10155
:1075D000B695A7959795879584D48091AE019091A3
:1075E000AF01A091B001B091B1010296A11DB11DF2
:1075F0008093AE019093AF01A093B001B093B1011D
:10760000CACFC33471F4C091AE01D091AF016ADD2D
:1076100090E021E0FE010C0120935700E895112431
:107620007FCEC33601F5C090AE01D090AF01E0909F
:10763000B001F090B10156DDF601E16090E021E08B
:107640000C0120935700E8951124F2E0CF0ED11CD5
:10765000E11CF11CC092AE01D092AF01E092B001EA
:10766000F092B1015DCECD3661F4E091AE01F091C2
:10767000AF0185E080935700E89507B600FCFDCF89
:107680004FCEC23551F4E091AE01F091AF01C591FA
:10769000D4918D2F3FDD8C2F44CEC434D9F422DD1C
:1076A000682F8091AE019091AF01A091B001B0918F
:1076B000B101B695A7959795879513D48091AE01A2
:1076C0009091AF01A091B001B091B1010296A11DBE
:1076D000B11D65CEC436F1F4C090AE01D090AF01BB
:1076E000E090B001F090B101D701C601B695A79521
:1076F00097958795EED30EDD22E0C20ED11CE11CDA
:10770000F11CC092AE01D092AF01E092B001F092B4
:10771000B10108CECB3109F405CEB6CE8EB38823A5
:1077200069F08091E80080FFF9CF8091E8008E77C2
:107730008093E80003CE8EB3811100CEDF91CF910C
:107740001F910F91FF90EF90DF90CF90BF90AF907F
:107750009F908F907F906F900895CF9380910008B5
:10776000909101081092010810920008C4B714BE4D
:107770000FB6F894A89580916000886180936000AE
:10778000109260000FBE45D0DCDCF0E0E0E08591B7
:1077900094910196D9F0C230C9F03E9A46988198EA
:1077A000809A899A88988FE19EE40197F1F700C04A
:1077B0000000799B0AC08FE39CE90197F1F700C0B4
:1077C0000000799B02C0469AE2DC469AEFDC78948E
:1077D0001092AD011092AC013F9A479A8091AC0192
:1077E0009091AD018033954780F08FE99FE001973C
:1077F000F1F700C000008091E00081608093E0001C
:10780000C6DC90E080E0CF910895A0DC5ADD4AD339
:10781000E5CF84E08093BC0080E18093B8000895B8
:107820008093BB0084E88093BC008091BC0087FFFC
:10783000FCCF9091B90081E0961301C080E00895DB
:10784000FF920F931F93CF93DF93F62ED72FC42F62
:10785000EFE9FFE03197F1F700C0000094EA909360
:10786000BC009091BC0097FFFCCF9091B90098307C
:1078700041F468E18E7FD4DFC1500F2D1D2F882386
:1078800071F084E98093BC00DF91CF911F910F913B
:10789000FF90089568E2C4DF8111F3CFC150F80171
:1078A00081918F01C111F6CF60E3BADFEACF292FB2
:1078B00030E02230310571F02330310581F0213084
:1078C000310549F582E190E020E931E0FA013183A8
:1078D000208308958EE390E022E531E0F7CF8823FE
:1078E00059F0813071F0823089F08330A1F48EE05C
:1078F00090E02EE031E0EACF84E090E02EE431E049
:10790000E5CF84E190E028E331E0E0CF88E190E04A
:107910002EE131E0DBCF90E080E030E020E0D6CF18
:107920008093E900EBEEF0E0808181608083EDEEF2
:10793000F0E010826093EC0040838091EE00881F9D
:107940008827881F08958091B40187FF11C0809116
:10795000E80082FF06C08091E8008B778093E80002
:1079600003C08EB38111F3CF08958EB38823E1F362
:107970008091E80080FFF9CF8091E8008E77EECF0C
:107980000F931F93CF93DF9341D048D0C8EDD0E041
:1079900088818F77888388818068888388818F7DBC
:1079A000888319BC1EBA1092B20100EE10E0F801F3
:1079B00080818B7F808388818160888342E060E062
:1079C00080E0AEDFE1EEF0E080818E7F8083E2EE4A
:1079D000F0E0808181608083808188608083F8010D
:1079E00080818E7F8083888180618883DF91CF91C1
:1079F0001F910F910895E7EDF0E080818160808311
:107A00008AE482BF81E08093B301BACFE8EDF0E071
:107A100080818E7F80831092E20008951092DA00B8
:107A20001092E10008951F920F920FB60F92112449
:107A30002F933F934F935F936F937F938F939F9376
:107A4000AF93BF93EF93FF938091DA0080FF17C04D
:107A50008091D80080FF13C08091DA008E7F8093E0
:107A6000DA008091D90080FF4EC080E189BD82E1BB
:107A700089BD09B400FEFDCF81E08EBB12D280919A
:107A8000E10080FF17C08091E20080FF13C0809169
:107A9000E2008E7F8093E2008091E200806180931B
:107AA000E2008091D80080628093D80019BC85E004
:107AB0008EBBF7D18091E10084FF30C08091E2005D
:107AC00084FF2CC080E189BD82E189BD09B400FE3C
:107AD000FDCF8091D8008F7D8093D8008091E10008
:107AE0008F7E8093E1008091E2008F7E8093E200A0
:107AF0008091E20081608093E2008091B20188234E
:107B000031F084E009C019BC1EBACBD1B8CF809146
:107B1000E30087FDF6CF81E08EBBC3D18091E10009
:107B200083FF21C08091E20083FF1DC08091E100AE
:107B3000877F8093E10082E08EBB1092B20180913A
:107B4000E1008E7F8093E1008091E2008E7F809340
:107B5000E2008091E20080618093E20042E060E018
:107B600080E0DEDE9ED1FF91EF91BF91AF919F91BA
:107B70008F917F916F915F914F913F912F910F90D6
:107B80000FBE0F901F901895FC018091BA01909143
:107B9000BB0186179707A0F06115710529F4909134
:107BA000E8009E779093E80090E06115710551F42C
:107BB000911108C08091E80082FF34C080E00895F0
:107BC000BC01F2CF8EB38823B1F1853081F1809171
:107BD000E80083FD2EC08091E80082FDEBCF80910C
:107BE000E80080FFE2CF2091F3008091F200322F75
:107BF000282F6115710519F02830310558F091E0F2
:107C00002830310509F090E02091E8002E7720938C
:107C1000E800CBCF81918093F100615071092F5F13
:107C20003F4FE7CF8EB3882331F0853019F683E0DC
:107C3000089581E0089582E00895FC0161157105C1
:107C400029F49091E8009B779093E8006115710505
:107C500031F48091E80080FF1EC080E008958EB36B
:107C6000882311F18530E1F08091E80083FD1AC08E
:107C70008091E80082FFEACF2091F3008091F2002A
:107C8000322F282F232BE9F28091F100819361504C
:107C9000710991F7D6CF8EB3882331F08530C9F6BC
:107CA00083E0089581E0089582E008950F931F9383
:107CB000CF93DF9300D0CDB7DEB7E4EBF1E0809156
:107CC000F100819381E0EC3BF807C9F7CCDA8091B1
:107CD000E80083FF8AC08091B4019091B5019A3089
:107CE00008F083C0E92FF0E0E958F14CECC0813E88
:107CF0009D3EF53E9D3EF53ED63E0A3FF53E283F71
:107D0000343F823809F071C08091B8018770809348
:107D1000E9008091EB0085FB882780F91092E9004B
:107D20009091E800977F9093E8008093F100109283
:107D3000F1008091E8008E7722C0282F2D7F09F076
:107D400054C0823009F051C08091B601811112C037
:107D50008091B801877009F448C08093E9002091B0
:107D6000EB0020FF07C0933071F48091EB0080623C
:107D70008093EB001092E9008091E800877F809368
:107D8000E800E1DD32C09091EB0090619093EB0050
:107D900021E030E001C0220F8A95EAF72093EA0043
:107DA0001092EA008091EB008860E2CF81111DC043
:107DB0001091B6011F770FB7F8948091E800877F84
:107DC0008093E800C0DD8091E80080FFFCCF8091C7
:107DD000E3008078812B8093E30080688093E30048
:107DE00082E0111183E08EBB0FBF8091E80083FF1A
:107DF0000AC08091EB0080628093EB008091E800E4
:107E0000877F8093E8000F900F90DF91CF911F91B3
:107E10000F9108958058823040F7AE014F5F5F4F59
:107E20006091B8018091B6019091B70140DDBC012D
:107E3000892BD9F29091E800977F9093E80089818F
:107E40009A81A2DE8091E8008B778093E800CDCF05
:107E5000803859F68091E800877F8093E800809110
:107E6000B2018093F10065CF8111BFCF9091B6012F
:107E7000923008F0BACF8091E800877F8093E800C5
:107E80009093B20160DD8091B201882311F084E00B
:107E900005C08091E30087FDFACF81E08EBBD7D982
:107EA000A4CF0895CF938EB3882359F0C091E900F1
:107EB000C7701092E9008091E80083FDF7DEC0935F
:107EC000E900CF910895EE0FFF1F0590F491E02D8A
:107ED0000994F999FECF92BD81BDF89A992780B592
:107EE0000895262FF999FECF1FBA92BD81BD20BDFE
:107EF0000FB6F894FA9AF99A0FBE01960895F8947D
:027F0000FFCFB1
:107F020077771803000000000000000000080E034D
:107F12006B00620069006F0030003100000018033E
:107F22004B006500790062006F006100720064001E
:107F320069006F002000000014034D006F00640010
:107F420065006C00200030003100200000000403B6
:107F5200090409023E000201008032090400000106
:107F62000202010005240010010424020405240673
:107F72000001070582030800FF09040100020A004C
:107F8200000007050402100001070583021000012A
:107F9200120110010200000809120023010002016F
:0C7FA20003014341544552494E41000088
:040000030000700089
:00000001FF
